:020000040800F2
:10000000003000202D15000861150008611500085A
:100010006115000861150008611500080000000066
:100020000000000000000000000000006115000852
:100030006115000800000000611500086115000846
:1000400061150008611500086115000861150008B8
:1000500061150008611500086115000861150008A8
:100060006115000861150008611500086115000898
:100070006115000861150008611500086115000888
:10008000611500086115000861150008690700087E
:100090006D07000861150008790600086115000861
:1000A0006115000861150008611500086115000858
:1000B00061150008611500080000000061150008C6
:1000C0006115000800000000000000006115000834
:1000D00000000000611500086115000861150008A6
:1000E0006115000861150008000000000000000014
:1000F0000000000000000000000000000000000000
:1001000000000000000000000000000000000000EF
:1001100000000000000000006115000861150008E3
:1001200000000000000000000000000000000000CF
:1001300000000000000000000000000000000000BF
:1001400061150008611500080000000000000000B3
:10015000000000000000000000000000000000009F
:10016000000000000000000000000000000000008F
:10017000000000000000000000000000000000007F
:10018000000000006115000810B5054C237833B954
:10019000044B13B10448AFF300800123237010BD5A
:1001A0000802002000000000C04A0008084B10B5FB
:1001B0001BB108480849AFF300800848036803B939
:1001C00010BD074B002BFBD0BDE81040184700BF07
:1001D00000000000C04A00080C02002000020020BD
:1001E00000000000154B002B08BF134B9D46A3F5E4
:1001F000803A00218B460F461348144A121A03F026
:10020000F3F80F4B002B00D098470E4B002B00D07B
:1002100098470020002104000D000D48002802D05E
:100220000C4800F094FD03F041F82000290000F094
:1002300095FE00F089FD00BF00000800003000209E
:10024000000000004D0F00080802002050070020A9
:100250004F0D00080000000082B001900091009B4B
:10026000002B05D0019B9B68019A12681A6004E07C
:10027000019BDB68019A12681A6002B0704700BFE8
:1002800082B00190019B5B681A68019B1B68134058
:10029000002B01D0012300E00023184602B0704774
:1002A00000B583B001900B46ADF80230019B0022EF
:1002B0001A60019B00225A60019B00229A60019BF8
:1002C0000022DA60019B00221A82019B00225A61FF
:1002D000019B00229A61019ABDF90230104619462D
:1002E00002F0A5F9019B184603B05DF804FB00BFBE
:1002F00000B583B00190019B1846FFF7C1FF03468C
:10030000184603B05DF804FB00B583B00190019876
:10031000FFF7EEFF0346184603B05DF804FB00BF8D
:1003200000B583B001900B46ADF80230019B00226E
:100330001A60019B00225A60019B00229A60019B77
:100340000022DA60019B00221A82019B00225A617E
:10035000019B00229A61019ABDF9023010461946AC
:1003600002F078F9019B184603B05DF804FB00BF6A
:1003700000B583B001900091019B18460099FFF7EA
:100380006BFF03B05DF804FB00B583B001900091F2
:1003900001980099FFF7ECFF019B184603B05DF848
:1003A00004FB00BF00B585B003468DF807309DF80B
:1003B000073003F007033F4AD35C8DF80F309DF9F7
:1003C0000F3003F00103002B03D13B480021FFF75E
:1003D000DBFF9DF90F3003F00203002B03D13748F8
:1003E0000121FFF7D1FF9DF90F3003F00403002B2B
:1003F00003D133480021FFF7C7FF9DF90F3003F009
:100400000803002B03D12F480121FFF7BDFF9DF901
:100410000F3003F01003002B03D12B480021FFF70E
:10042000B3FF9DF90F3003F02003002B03D12748C1
:100430000121FFF7A9FF9DF80F3003F00103002B06
:1004400003D01D480121FFF79FFF9DF80F3003F0F7
:100450000203002B03D019480021FFF795FF9DF8F8
:100460000F3003F00403002B03D015480121FFF7E0
:100470008BFF9DF80F3003F00803002B03D01148C9
:100480000021FFF781FF9DF80F3003F01003002BD0
:1004900003D00D480121FFF777FF9DF80F3003F0DF
:1004A0002003002B03D009480021FFF76DFF05B0A2
:1004B0005DF804FBB443000894020020B002002061
:1004C000CC020020E80200200403002020030020CA
:1004D00010B50A48FFF718FF04460948FFF714FF54
:1004E00003465B001C440748FFF70EFF03469B00D2
:1004F0002344054AD35C5BB2184610BD400200207D
:100500005C02002078020020BC43000808B50020EF
:10051000FFF748FF4FF0804002F066FBFFF7D8FF7F
:100520000346184608BD00BF00B59FB000238DF8F4
:10053000763000238DF8753000238DF8773003AACC
:100540004FF416530093104602210F22002301F0AE
:100550002DFF03AB4C3318461A4902F085FAFFF71A
:10056000D5FF03468DF876309DF9762003AB4C33EA
:100570001846154902F078FAFFF7AAFF03468DF8EE
:1005800075309DF975209DF977309A42F4D09DF829
:1005900075308DF877309DF975209DF97630D31A36
:1005A00003F10802094B83FB0231D317C91A0B462A
:1005B0005B000B445B00D11ACBB25BB21846FFF76D
:1005C000F1FED9E798430008A0430008ABAAAA2A85
:1005D00000B583B001900091019B012B2CD1009BB1
:1005E0004FF6FF72934227D115481321FFF798FE6B
:1005F00014480C21FFF754FE13481521FFF750FE55
:1006000012481421FFF74CFE11481721FFF788FE0E
:1006100010481621FFF784FE0F481021FFF780FED7
:100620000E481121FFF77CFE0D480821FFF778FEE8
:100630000C480B21FFF774FE03B05DF804FB00BF0C
:1006400024020020400200205C02002078020020EA
:1006500094020020B0020020CC020020E80200201A
:10066000040300202003002008B501204FF6FF718D
:10067000FFF7AEFF08BD00BF354B5A69D20770B512
:1006800028D59868334E9968334D9A68334C30407A
:10069000B04201EA050104BF01269E60A9422C4B2D
:1006A00002EA040204BF4FF480759D60A24204BFB9
:1006B0004FF480349C60274B984205D0264B9942DA
:1006C00002D0264B9A4205D1254B264A1B6810685A
:1006D000012198471E4CE2686369960707D09D0781
:1006E00005D51F4B1F4A1B68106800219847A16958
:1006F000626963698C0709D5900507D5190405D58A
:10070000174B184A1B68106805219847104A9569CD
:100710005469526915F0040504F4806408D03CB1B2
:10072000120405D50E4B0F4A1B6810680721984725
:10073000074B5B6955B14CB11B0407D5084B094AFF
:100740001B6810680221BDE87040184770BD00BFEB
:1007500000640040030000040003000800000310D0
:10076000400300203C030020FFF786BFFFF784BF53
:100770007FB5052843D8DFE800F003121E2A423671
:10078000214B5A6942F400325A615B6903F4003329
:100790000193019B4FF0904007B05DF804FB1A4BAA
:1007A0001A485A6942F480225A615B6903F4802333
:1007B0000293029BF0E7144B15485A6942F4002259
:1007C0005A615B6903F400230393039BE4E70E4B38
:1007D00010485A6942F480125A615B6903F480132D
:1007E0000493049BD8E7084B0B485A6942F48002F3
:1007F0005A615B6903F480030593059BCCE70748C6
:1008000002F0CCF90020C7E70010024000040048C5
:1008100000080048000C0048001400485444000838
:10082000431C10B5044604D174220649064802F060
:1008300039F92046002100F0B5FB04F00F04012037
:10084000A04010BD75440008B844000870B50446C7
:100850004B1C0E46218218D0C1F30310FFF788FF0E
:1008600005463046FFF7DCFF238A084A656103F03E
:100870000F03206052F82330A36105F11003636079
:1008800005F118032835A360E56070BD40450008F8
:10089000B0F9100000F01EBC10B58369446971B94D
:1008A000216893FAA3F2B2FA82F20320520000FA0E
:1008B00002F221EA020293FAA3F3226010BD226839
:1008C00093FAA3F1B1FA81F193FAA3F3032049005B
:1008D00000FA01F1B3FA83F322EA01025B0001217D
:1008E00001FA03F31343236010BD000070B5134CED
:1008F00023681A69950707D5DA68900704D56FF061
:1009000002021A6101F02CFF23681A69510713D5FE
:10091000DA68520710D56FF00402094E1A615D6A59
:100920003368EB1AB3F57A7F06D300F02DFE236807
:1009300005F57A729A63356070BD00BF0C07002020
:100940004403002030B589B001A903A801F0D2F911
:1009500001F0A0F9254B0190DA69254C42F0010223
:10096000DA61DA6902F001020292029A1A6942F02F
:1009700001021A611A6922F001021A61069A4FF007
:10098000804323604FF0FF33E3601A4B002A2BD1E2
:10099000B0FBF3F001380025606015482561A560C3
:1009A0006561A56101F010FA134B144A9B68104869
:1009B000C3F8B020124B4FF080521A60294601F064
:1009C0004BFA04210A4801F047FA23680D4A596A94
:1009D0001160126802F57A729A63DA68284642F06A
:1009E0000402DA6009B030BD4000D1E700100240D7
:1009F0000C07002040420F0000ED00E0ED08000869
:100A000000E100E04403002010B588B002F062F875
:100A1000132101A801F01EFE0424039B019A1A6011
:100A2000962002F0EFF8049B019A1A60962002F0DB
:100A3000E9F8013CF1D10424039B019A1A604FF4B8
:100A4000C87002F0DFF8049B019A1A604FF4C87076
:100A500002F0D8F8013CEFD1DEE7000070B50D469A
:100A6000A0B0044602F036F82B46224680216846A4
:100A700003F0D0F8051E03DC02F058F820B070BD7A
:100A8000094B1B6823B90F220221084800F000FC23
:100A9000064E00241DF804103046013400F02EFDEF
:100AA000A542F7D1E8E700BF6C040020E40600206F
:100AB0000FB407B504A951F8040B0191FFF7CEFF5D
:100AC00003B05DF804EB04B0704708B501F0BAFB61
:100AD00000F048FD01F0AFFBBDE8084001F0B2BBFB
:100AE00008B5084B1B685BB9022107480F2200F0CC
:100AF000CFFB4FF416510448BDE8084000F072BC2B
:100B000008BD00BF6C040020E4060020022810B5D8
:100B100001DC002010BDC31E0B4A52F82300002147
:100B200042F8231030B902F0FFF8092303604FF0B8
:100B3000FF3010BD03685B699847041EE9DA02F0D4
:100B4000F3F864420460F2E7480300200228F8B595
:100B50000D4614460EDC134B1B680BB9FFF7C0FFA4
:100B6000114E2F19BD4210D015F8011B304600F070
:100B7000C5FCF7E703380D4B53F8200038B902F0F5
:100B8000D3F8092303604FF0FF342046F8BD036813
:100B9000DB689847041EF8DA02F0C6F86342036087
:100BA000F3E700BF6C040020E406002048030020A7
:100BB000022810B50C460BDC104B1B680BB9FFF775
:100BC0008FFF0F4800F084FC20700124204610BDE8
:100BD00003380C4B53F8200030B902F0A5F8092374
:100BE00003604FF0FF34F1E703689B689847041EE9
:100BF000ECDA02F099F863420360E7E76C04002046
:100C0000E406002048030020022810B516DD033852
:100C10000B4B53F820402CB902F086F809230360EF
:100C2000204610BD23682046DB699847041EF7DA8A
:100C300002F07AF8644204600024F1E70124EFE74F
:100C400048030020022810B506DC02F06DF81D23D1
:100C500003604FF0FF3010BD03380A4B53F82000FB
:100C600018B902F061F80923F2E703681B69984795
:100C7000041E04DA02F058F864420460E9E72046F2
:100C800010BD00BF48030020022838B50D4604DC23
:100C90004FF400534B60002038BD03380D4B53F820
:100CA000204034B902F040F8092303604FF0FF30D0
:100CB00038BD23682046DB699847002814BF4FF4ED
:100CC00000534FF400436B60236820469B6A9847AB
:100CD0002861E0E74803002008B5012000F034F85F
:100CE0000C4A136810B51844EFF30881884205D305
:100CF000094B0C221A604FF0FF3010BD07490C68F9
:100D000024B10749096821448842F1D2106018468D
:100D100010BD00BF880100204C07002050040020B7
:100D200054040020074C08B523680546986802F073
:100D300009F92368D86802F005F90DB1FFF764FEE0
:100D4000FEE700BFF001002008B5FFF7EBFF012030
:100D50007047002102F036BE1FB504220C463A232C
:100D60000DEB020101900DF109008DF8083002F041
:100D700030FB214602A802F0E3F9044638B101989D
:100D80000368DB69984710B12046FFF7E2FF204671
:100D900004B010BD08B102F005BB7047FFF7FABF01
:100DA000034610B553F8042B044602B903602268C9
:100DB0009A4204D05D220349034801F073FE206883
:100DC00010BD00BFCB4400081345000810B5044611
:100DD0000948FFF7E5FF0023084A194652F82300A7
:100DE000A04208BF42F823100133402BF6D102483D
:100DF000FFF7D6FF10BD00BF4804002048030020C5
:100E00002DE9FF4789464049064602F0AEFE0446FA
:100E100028B9FFF765FE204604B0BDE8F0873B49DE
:100E2000304602F0A2FE18B9FFF75AFE0124F2E79D
:100E30003749304602F099FE18B9FFF751FE0224F7
:100E4000E9E73448344DFFF7ABFF0024A84655F8D6
:100E50002470002F40D00134402CF8D101F064FF01
:100E6000182303602B48FFF79BFF0EE0314602A8D2
:100E700001F010FD02A801F051FD064640B901F055
:100E800053FF1323036045F824604FF0FF34C2E79B
:100E900002A801F031FD074602A81FB101F035FD9F
:100EA00001902BE001F01FFD06460028E7D0036803
:100EB00002A8D3F808A001F00BFD29F48033024604
:100EC00001A93046D0470646C0B101F02DFF764259
:100ED000066045F82470D8E74FF0FF330D4845F819
:100EE0002430FFF75DFF337801973A2BBED10422FF
:100EF000711C02A802F06DFA029B0193019B48F855
:100F00002430033487E700BF2F450008364500082A
:100F10002745000848040020480300207047704718
:100F2000074B08499A68084810B5043A52F8044F2C
:100F300041F8044F8142F9D14FF000529A6010BD40
:100F400000ED00E0FCFFFF1F8401002008B5FFF763
:100F5000E7FFFFF7BAFDFFF7E2FF08BD08B5FFF7AF
:100F6000DDFFBDE80840FFF7DFBA30B5C36891FA8E
:100F7000A1F4B4FA84F491FAA1F10325B1FA81F154
:100F8000640005FA04F4490023EA040302FA01F1BB
:100F90001943C16030BD012A02D0022A18BF0022C5
:100FA000FFF7E3BF2DE9F0410E46411C044604D192
:100FB0003E224449444801F075FD04F00F08434BBC
:100FC000C4F3031053F82850FFF7D2FB06F00707CD
:100FD0000446826895FAA5F3B3FA83F395FAA5F16E
:100FE00003205B00B1FA81F100FA03F322EA030364
:100FF0004A0000FA02F21343A36087425AD8DFE89E
:1010000007F05E1D021DB8F1070FC6F303203BD9A0
:10101000626A2B0A93FAA3F1B1FA81F193FAA3F36E
:101020004FF00F0EB3FA83F389000EFA01F19B0023
:1010300022EA010200FA03F3134363623B4622688B
:1010400095FAA5F0B0FA80F095FAA5F14FF0030EED
:10105000B1FA81F140000EFA00F0490022EA0002E4
:101060008B40013F1343012F236005D8636832078B
:101070004CBF2B43AB436360C6F3011229462046A5
:10108000BDE8F041FFF787BF226A95FAA5F3B3FAEE
:1010900083F395FAA5F14FF00F0EB1FA81F19B00A1
:1010A0000EFA03F3890022EA030200FA01F3134364
:1010B0002362C3E767220349054801F0F3FC0023DC
:1010C000BDE700BF80450008B8440008404500085F
:1010D000C1450008431C70B506460D4604D1882260
:1010E0001E491F4801F0DEFC06F00F021D4BC6F33F
:1010F000031053F82240FFF73BFB066894FAA4F173
:10110000B1FA81F394FAA4F259000323B2FA82F2FD
:101110008B4033405200D340013B012B05D8EB1EDE
:10112000022B436809D823434360032D08D10122D1
:101130002146BDE87040FFF72EBF23EA0403436059
:10114000012DF4D0052D01D0022D01D10222EFE7AF
:1011500021460022BDE87040FFF707BF8045000828
:10116000B8440008404500084368194970225A43B2
:1011700010B504685450531882685A60C2689A6067
:101180000269DA6042691A61C2699A610022A3F8B1
:101190005220DA61A3F85020A3F85A20A3F858206F
:1011A000B0F91A2001320AD108225A61184600F01B
:1011B000B4FF58B10748BDE8104001F0EFBCB0F9EA
:1011C000182001320CBF04220C22EEE710BD00BF34
:1011D000B4040020C3450008426870235343054A05
:1011E000D358DA69120744BF08221A62D869C0F3DB
:1011F00040107047B4040020426870235343034AF0
:10120000D358D869C0F3C010704700BFB4040020A1
:1012100070B5174E054656F82000002827D07023D9
:10122000144C6B43E358DA69120606D5DB691906DC
:1012300003D5114B01211B68984770236B43E3587A
:10124000DA69920608D5DB69980605D50A4B56F887
:1012500025001B680021984770235D436359DA69B4
:10126000110704D5DA69120744BF08221A6270BD5B
:1012700058040020B4040020B00400200020FFF730
:10128000C7BF0120FFF7C4BF0220FFF7C1BF0000A6
:10129000F0B50E4685B0044648493046154601F083
:1012A00019FA47490746284601F014FA014638461C
:1012B00001F0F2F92060013004D13E224149424858
:1012C00001F0F0FB2368414A934248D1404BDA6871
:1012D00042F48042DA60DA6822F48042DA609A6985
:1012E00042F480429A619A6902F480420192019A22
:1012F0001A6B22F0030242F001021A6300236360BA
:101300002E49304601F0AAF92D49284601F0A6F9E8
:10131000721C03D001213046FFF7DCFE6B1C03D0AA
:1013200001212846FFF7D6FE4FF41653A360002391
:10133000E36023616361E361268365832046FFF7F1
:1013400013FF2268234B9A4207D1234B23480122E3
:101350001A602146242202F03CF805B0F0BD1D4A77
:10136000934213D11A4B1A6942F400321A611A6976
:1013700022F400321A61DA6942F40032DA61DB6980
:1013800003F400330293029B0123B8E7144A93420B
:10139000B6D10F4B1A6942F480221A611A6922F4FD
:1013A00080221A61DA6942F48022DA61DB6903F48F
:1013B00080230393039B0223A1E700BF0C44000892
:1013C000C4430008DB4500083246000800380140ED
:1013D00000100240004400406C040020E40600209D
:1013E000004800408160FFF7BFBE0000034B19605A
:1013F0004168034B43F82120704700BFB004002030
:101400005804002070B590E84800284883421AD15B
:10141000274C25237020274D70433AB309BB295828
:101420000A6842F020020A60234A03F11001926820
:1014300042F8214003F007025909012393401F4A53
:1014400042F8213070BD1E48834202D11D4C262334
:10145000E0E71D48834213BF00241C4C272323468A
:10146000D8E729580A6842F08002DCE72A5839B9DF
:10147000116821F0200111601268110607D570BDB6
:10148000116821F080011160126892060DD45A098A
:10149000012103F0070301FA03F32032074941F861
:1014A0002230BFF34F8FBFF36F8F70BD0038014004
:1014B0007D120008B404002000ED00E000E100E02F
:1014C00000440040831200080048004089120008D0
:1014D00038B5456804462046FFF77EFE0028FAD05E
:1014E0007023054AE1686B43D358988C09B9C0B2A0
:1014F00038BDC0F3080038BDB404002070B546689C
:1015000005460C462846FFF777FE0028FAD07023E0
:10151000054AE9687343D35811B9E4B21C8570BD1C
:10152000C4F30804FAE700BFB4040020DFF820D0B9
:10153000002103E0074B5B58435004310648074B3A
:1015400042189A42F6D300F01BFEFEF74BFEFEE770
:1015500000300020F44A0008880100200402002026
:10156000FEE77047074A08B5136843F0100313609D
:10157000032000F017F80F20FFF7E4F9FFF7F1FF61
:10158000002008BD00200240024A136801331360A6
:10159000704700BF08070020014B1868704700BF64
:1015A00008070020074AD36823F4E0631B041B0CE0
:1015B00043F0BF63000243F4003300F4E0600343F0
:1015C000D360704700ED00E00368DA072DE9F347C8
:1015D000054611D42B689B0700F188802B681C07F7
:1015E00000F1F8802B68580700F14181EA69002A70
:1015F00040F0D781002021E0BA4C636803F00C036F
:10160000042B07D0636803F00C03082B19D163681F
:10161000DF0316D54FF4003393FAA3F2216893FA4F
:10162000A3F3B3FA83F303F01F03012202FA03F3D7
:101630000B42CFD06B68002BCCD1012002B0BDE8AB
:10164000F0876A68B2F5803F25D1236843F4803380
:101650002360E36AA96823F00F030B43E36252B3EC
:10166000FFF79AFF4FF400368046012796FAA6F35B
:10167000226896FAA6F3B3FA83F303F01F0307FA7E
:1016800003F31342A6D1FFF787FFA0EB08006428FD
:10169000ECD90320D2E7236832B923F480332360E6
:1016A000236823F48023D3E7B2F5A02FF5D143F4C8
:1016B00080232360C9E7FFF76FFF4FF400368046B1
:1016C000012796FAA6F3226896FAA6F3B3FA83F3F3
:1016D00003F01F0307FA03F313423FF47BAFFFF756
:1016E0005BFFA0EB08006428EBD9D2E77D4C636870
:1016F00013F00C0F07D0636803F00C03082B21D103
:101700006368DE031ED4022393FAA3F2216893FADE
:10171000A3F3B3FA83F303F01F03012202FA03F3E6
:101720000B4202D02B69934287D12168F82393FAA8
:10173000A3F3B3FA83F26B69934021F0F8021343E9
:1017400023604BE72A6901260AB396FAA6F3B3FA97
:1017500083F303F1845303F584139B0002271E6077
:10176000FFF71AFF804697FAA7F3226897FAA7F3C4
:10177000B3FA83F303F01F0306FA03F31342D4D141
:10178000FFF70AFFA0EB08000228ECD981E796FAE0
:10179000A6F3B3FA83F303F1845303F584139B0098
:1017A00002271A60FFF7F8FE804697FAA7F322682F
:1017B00097FAA7F3B3FA83F303F01F0306FA03F3D0
:1017C00013423FF40BAFFFF7E7FEA0EB080002283F
:1017D000EBD95EE7AA69434E434901241AB394FA50
:1017E000A4F3B3FA83F30B449B0002271C60FFF7BA
:1017F000D3FE804697FAA7F397FAA7F397FAA7F3D1
:10180000726A97FAA7F3B3FA83F303F01F0304FA9B
:1018100003F313427FF4E6AEFFF7BEFEA0EB080031
:101820000228E7D935E794FAA4F3B3FA83F30B441B
:101830009B0002271A60FFF7AFFE804697FAA7F3D6
:1018400097FAA7F397FAA7F3726A97FAA7F3B3FA8E
:1018500083F303F01F0304FA03F313423FF4C2AE11
:10186000FFF79AFEA0EB08000228E7D911E71D4C0C
:10187000E369D90034D4E36943F08053E361E36959
:1018800003F080530193019B0126184F3B68DA0552
:101890002ED5EB68012B3CD1236A43F00103236270
:1018A000FFF77AFE02278246B9464FF0010897FA01
:1018B000A7F397FAA7F3002B6BD0226A99FAA9F342
:1018C000B3FA83F303F01F0308FA03F3134257D06C
:1018D000002E3FF48BAEE36923F08053E36185E68D
:1018E0000026D2E7001002402081901000700040D6
:1018F0003B6843F480733B60FFF74EFE80463B68D5
:10190000DB05C6D4FFF748FEA0EB08006428F6D933
:10191000BFE63BBB236A23F001032362236A23F063
:1019200004032362FFF738FE02278246B9464FF0D0
:10193000010897FAA7F397FAA7F373B3226A99FA03
:10194000A9F3B3FA83F303F01F0308FA03F3134276
:10195000BED0FFF721FE41F28833A0EB0A00984287
:10196000E7D996E6052B236A03D143F004032362EB
:1019700092E723F001032362236A23F004038EE736
:10198000FFF70AFE41F28833A0EB0A0098428ED995
:101990007FE697FAA7F3626A90E797FAA7F3626A7D
:1019A000CDE7414C636803F00C03082B3FF445AED0
:1019B000022A4FF0807352D193FAA3F3B3FA83F360
:1019C00003F1845303F584139B0000221A60FFF790
:1019D000E3FD4FF000778046012697FAA7F32268CF
:1019E00097FAA7F3B3FA83F303F01F0306FA03F39E
:1019F00013422DD162686B6A296A22F474120B4378
:101A0000134363604FF0807393FAA3F3B3FA83F345
:101A100003F1845303F584139B004FF000751E609F
:101A2000FFF7BAFD0126074695FAA5F3226895FA55
:101A3000A5F3B3FA83F303F01F0306FA03F313428B
:101A40007FF4D8ADFFF7A8FDC01B0228ECD920E633
:101A5000FFF7A2FDA0EB08000228BED919E693FA11
:101A6000A3F3B3FA83F303F1845303F584139B00C8
:101A700000221A60FFF790FD4FF00075074601261F
:101A800095FAA5F3226895FAA5F3B3FA83F303F068
:101A90001F0306FA03F313423FF4ACADFFF77CFDDE
:101AA000C01B0228ECD9F4E50010024010B5134C1D
:101AB000616801F00C03082B1ED14FF4701393FAE8
:101AC000A3F301F47012B3FA83F322FA03F30C4A7E
:101AD000D05CE36A0F2292FAA2F2B2FA82F203F029
:101AE0000F03D340074AD25CCB034ABF064B074BD8
:101AF000B3FBF2F3584310BD034810BD0010024081
:101B00004E4600085E46000800127A0000093D00BB
:101B10005C4A136803F007038B422DE9F041064647
:101B20000D4630D3326891073AD4D20740D4554A93
:101B3000136803F007039D42C0F092803268524C54
:101B400012F0040F40F09780130706D563683269DE
:101B500023F4605343EAC2036360FFF7A7FF63689F
:101B6000F02292FAA2F2B2FA82F203F0F003D3402A
:101B7000464AD35CD840464B18600F20FEF7E2FE81
:101B80000020BDE8F081136823F007030B431360C6
:101B9000136803F007039942C4D00120BDE8F08127
:101BA0003949B0684B6823F0F00303434B60BCE74E
:101BB0007268354C012A28D14FF4003393FAA3F10F
:101BC000216893FAA3F3B3FA83F303F01F0302FA35
:101BD00003F30B42E1D0636823F003031A4362600E
:101BE000FFF7DAFC7368012B074641F288381FD1F2
:101BF000636803F00C03042B99D0FFF7CDFCC01BE6
:101C00004045F5D90320BDE8F081022A0CBF4FF012
:101C10000073022393FAA3F1206893FAA3F3B3FAB3
:101C200083F303F01F03012101FA03F30342D1E719
:101C3000022B10D1636803F00C03082B3FF477AF3D
:101C4000FFF7AAFCC01B4045F4D9DBE7FFF7A4FC73
:101C5000C01B4045D6D8636813F00C0FF6D166E779
:101C6000136823F007032B431360136803F0070383
:101C70009D4292D162E76368F16823F4E0630B430D
:101C8000636061E7002002400010024072460008D5
:101C90008C010020084B4FF4E0625B6892FAA2F2DC
:101CA000B2FA82F203F4E063D340044AD35C044AFC
:101CB0001068D840704700BF0010024082460008FC
:101CC0008C010020084B4FF460525B6892FAA2F23C
:101CD000B2FA82F203F46053D340044AD35C044A5C
:101CE0001068D840704700BF0010024082460008CC
:101CF0008C0100200F2303600B4B5A6802F0030293
:101D000042605A6802F0F00282605A6802F4E062AF
:101D1000C2605B68DB0803F4E0630361034B1B688C
:101D200003F007030B6070470010024000200240E0
:101D300070470000214A0368904210B505D0B0F109
:101D4000804F02D01E4CA0420CD14C6823F070038F
:101D5000904243EA040310D0B0F1804F0DD0184AEE
:101D600090420AD0174A904207D002F58062904212
:101D700003D002F58062904203D1CA6823F4407315
:101D800013434A6923F08003134303608B68C362E3
:101D90000B688362094B98420BD003F5A05398421D
:101DA00007D003F58063984203D003F5806398421F
:101DB00001D10B6903630123436110BD002C014075
:101DC000000400400040014010B50446A0B190F866
:101DD0003D3003F0FF021BB980F83C20FFF7A8FF5D
:101DE000022384F83D302068211DFFF7A3FF012363
:101DF00084F83D30002010BD012010BD036A10B5ED
:101E000001248C4023EA04030362036A8A401A43D4
:101E1000026210BD10B5044601220068FFF7EEFF14
:101E200023680C4A93420BD002F5A052934207D08C
:101E300002F58062934203D002F58062934203D19F
:101E40005A6C42F400425A641A6842F001021A6065
:101E5000002010BD002C0140FFF7DCBF70470000E0
:101E600038B5044605682169A368C26928680B4330
:101E700061690B434949134301400B432B606B6875
:101E8000E168206A23F440530B436B60A968A3699F
:101E900021F4306103430B43AB60414B9D4212D1AF
:101EA00003F558433F491B6B03F00303B2F5004FA2
:101EB000CB5C3BD1082B36D8DFE803F00F2124356B
:101EC0002D3535353000384B9D4203D003F5806306
:101ED0009D425ED1B2F5004F31D1FFF7DBFE616864
:101EE0004A0802EB4003B3FBF1F39BB2002023F05E
:101EF0000F022168C3F342031343CB6038BDFFF7E1
:101F0000E1FEECE76068430803F5740303F5105342
:101F1000B3FBF0F3E9E7FFF7C9FDE0E760684308CA
:101F200003F58033F4E701200023E0E7082B33D8E2
:101F3000DFE803F005101B32273232322A00FFF7A8
:101F4000A9FE636800EB5300B0FBF3F080B2E860D9
:101F5000002038BDFFF7B6FE636800EB5300B0FB0E
:101F6000F3F00F4B80B2D860F2E76268530803F5D4
:101F7000F40303F59053B3FBF2F3094A9BB2D36029
:101F8000E6E7FFF793FDE7E76268530803F50043D0
:101F9000F1E7B2F5004FC6D0012038BDF369FFEF7D
:101FA000003801406E46000800440040436ADA07EA
:101FB00010B506D50168846A4A6822F400322243CB
:101FC0004A609C0706D50168C46A4A6822F48032D8
:101FD00022434A60590706D50168046B4A6822F417
:101FE000802222434A601A0706D50168446B4A687A
:101FF00022F4004222434A60DC0606D50168846B65
:102000008A6822F4805222438A60990606D50168C4
:10201000C46B8A6822F4005222438A605A060FD5A4
:102020000168046C4A6822F480122243B4F5801FD0
:102030004A6005D14A68446C22F4C00222434A60D7
:102040001B0606D50268816C536823F400230B43FA
:10205000536010BD2DE9F041069D04460F4616461B
:1020600098462168CA6937EA02030CBF01220022A0
:10207000B24202D00020BDE8F0816B1CF2D09DB9C5
:1020800023681A6822F4D0721A609A6822F001025A
:102090009A60202384F8693084F86A30002384F839
:1020A00068300320BDE8F081FFF776FAA0EB080066
:1020B0008542D6D2E4E773B504460026C666FFF72C
:1020C0006BFA23681B681A07054617D423681B6838
:1020D0005B070AD56FF07E43009300222B464FF436
:1020E00080012046FFF7B6FFA0B92023002084F826
:1020F000693084F8680084F86A300CE06FF07E4341
:102100000093324603464FF400112046FFF7A2FF2A
:102110000028DBD0032002B070BD10B5044660B3C8
:1021200090F8693003F0FF021BB980F86820FFF7D0
:1021300095FE2268242384F86930136823F0010394
:1021400013602046FFF78CFE012816D0636A13B196
:102150002046FFF72BFF23685A6822F490425A600A
:102160009A6822F02A029A601A6842F00102204618
:102170001A60BDE81040FFF79EBF012010BD0000AF
:102180001549D1F8883043F47003C1F88830134BF7
:102190001A6842F001021A605868114A02405A60F7
:1021A0001A6822F0847222F480321A601A6822F4CB
:1021B00080221A605A6822F4FE025A60DA6A22F01B
:1021C0000F02DA62186B074A02401A6300229A6013
:1021D0004FF000638B60704700ED00E0001002409C
:1021E0000CC07FF8CCFC00FF30B591B00323069300
:1021F00001230A93102300240B9302254FF460134C
:1022000006A807940D950E940F93FFF7DDF980B99A
:102210000F23019303904FF480630590294601A892
:1022200002950493FFF774FCB0FA80F0400911B0F6
:1022300030BD2046FBE708B5FFF7D6FF00B9FEE743
:1022400008BD0000144A1549536803F00C03042B21
:1022500010B501D0082B0AD0114B0B605368114AFE
:10226000C3F30313D25C0B68D3400B6010BD5368FB
:102270005068C00349BFD06A0B48094C00F00F00FA
:10228000C3F3834348BF013003F1020348BFB4FBEB
:10229000F0F04343E1E700BF001002408C01002052
:1022A00000127A007246000800093D0070474FF0A6
:1022B0008043586A70470000054B1B68DA6822F0BB
:1022C0000202DA605863DA6842F00202DA607047AC
:1022D0000C070020034B1A68536943F00203536153
:1022E000704700BF0C070020034B1A68D36823F027
:1022F0000203D360704700BF0C070020024B1B682D
:102300006FF002021A6170470C07002003681B6916
:10231000184703689B69184703689B6A18474FF082
:10232000FF3070471120704770477047A0F14C0094
:10233000FFF7FBBFA0F14C00FFF7F7BF00F06CB850
:10234000A0F14C00FFF7FABF00F069B8A0F14C0013
:10235000FFF7FABF094B10B503F10802026003F161
:10236000280284330446C26403654C3000F06AFBE3
:10237000204600F0FDF8204610BD00BF8C46000846
:10238000A0F14C00E6E7A0F15000E3E710B50446E9
:10239000FFF7E0FF2046FEF701FD204610BDA0F14B
:1023A0004C00F3E7A0F15000F0E7000038B5044618
:1023B0001D46049B00F054F8294604F14C0000F03F
:1023C00019FB054B03F10802226003F12802843354
:1023D000E2642365204638BD8C460008704770478C
:1023E000090170B501F128050544EB6873B1441883
:1023F000636B2BB94FF404720549064800F052FB99
:10240000636B28461B68BDE87040184770BD00BF6D
:10241000184700085C4700080430FFF759B810B5AA
:1024200004300C46FFF76AF8204610BDC36810B5AB
:1024300004460BB19B689847204610BD884238B5CA
:1024400004460D460AD0FFF7F1FF3CB1EB681BB123
:102450005B68294620469847EB68E360204638BD14
:102460002DE9FF4705469A46224B45F8043B0446B2
:102470008846914604F1280724220021284600F0CE
:10248000B3FF04F1380610220021384600F0ACFFFB
:1024900010220021304600F0A7FF1022C4F848A007
:1024A0000021684600F0A0FF69463846FFF7C6FFE6
:1024B0006846FFF7BBFF10220021684600F094FF3A
:1024C00069463046FFF7BAFF6846FFF7AFFF4A4656
:1024D00041462846FEF7DCFEA16C2846FEF782FF47
:1024E000284622460449FEF781FF204604B0BDE895
:1024F000F08700BF6C470008E12300082DE9FF4189
:102500000646884656F8043B17461B6805463C01BC
:10251000984700F0DFFAD8F80C3028342C44ABB1DF
:10252000E3680BB900F0E6F841462046FFF786FF66
:10253000012239463046FEF765FF00F0F7FA2B68B6
:1025400028465B68984704B0BDE8F081E3680BB1AA
:1025500000F0EAF810220021684600F045FF6946C5
:102560002046FFF76BFF6846FFF760FF0022E0E7B9
:102570007FB5164B0360044610220021684600F028
:1025800033FF002269462046FFF7B8FF6846FFF791
:102590004DFF10220021684600F026FF0122694607
:1025A0002046FFF7ABFF6846FFF740FF14F128060F
:1025B00008D004F14805B54204D0103D2846FFF785
:1025C00035FFF8E7204604B070BD00BF6C47000837
:1025D00010B50446FFF7CCFF2046FEF7DFFB204690
:1025E00010BD70B50E4604461546FEF72FF90136AC
:1025F00009D020460021FEF74FF929462046BDE8C4
:102600007040FEF745B970BD38B504460D46036805
:102610005AB18268136020460121FEF73DF9294630
:102620002046BDE83840FEF733B9C268F2E7002221
:10263000FFF7D7BF70B50E4604461546FEF706F9FC
:10264000013606D02A4620460021BDE87040FFF73B
:10265000DBBF70BD0022FFF7EDBF000010B50446E0
:1026600001300DD110BD9C4209D120468968FEF78A
:1026700099FC20460021BDE81040FEF72BBD0C312F
:10268000B1F900305A1CEED10248BDE8104000F00C
:1026900085BA00BFAD470008884208B508D0431C82
:1026A00006D0013106D0044800F078FA4FF0FF312F
:1026B000084608BD0146FBE77C470008B1F9003039
:1026C0005A1C01D118467047834201D148687047AF
:1026D0000C31F3E7421C10B5044607D0FFF7EEFFBC
:1026E000431C044602D1024800F058FA204610BDAF
:1026F0008D47000808B500F0EDF9094B1A884FF630
:10270000FF739A4204D100F011FA064800F046FA2D
:102710000121034800F028FABDE8084000F006BA9D
:1027200070040020BE47000808B500F0D3F9084B3C
:102730001B8823B900F0FAF9064800F02FFA0121AE
:10274000034800F01EFABDE8084000F0EFB900BFF2
:1027500070040020EB470008004870471448000848
:10276000014800F063B800BF144800080368D0B502
:1027700044685B68D4E9026798470022B04242EAA5
:1027800000023B4602D2003247F10103C4E90223B2
:10279000D0BD2DE9F0410646FFF7E8FF72683768C3
:1027A0005368D2E902012BB3D3E90023994208BF51
:1027B000904203D37B69BDE8F0411847141A63EBDC
:1027C0000105002D08BFB4F1E04F13D2121A84188E
:1027D0003B69204641F1000598473046FFF7C6FFA8
:1027E0007368D3E90223AB4208BFA24205D3336822
:1027F0005B69E0E74FF0E042E9E7BDE8F08103689C
:1028000010B504461B689847636800221A605A6036
:10281000002000210122C3E902011A742046FFF7BB
:10282000A5FF2046BDE81040FFF7B3BF036870B5B1
:10283000DB680446984763685B68A3B12046FFF7EE
:1028400095FF65686E68D5E90201D6E900239942D3
:1028500008BF904207D3F3686B602B68002BEAD067
:10286000B0689847E7E72046BDE87040FFF791BFA2
:1028700043681B7C10B504460BB9FFF7C0FF204628
:10288000FFF774FF6368D3E9020110BD08B5FFF7D5
:10289000EFFF08BD10B50023036043600A782F2ABC
:1028A00004460DD14A785AB1481C20601946236865
:1028B0001A782F2A06D10133236000F0F9F96060FD
:1028C000204610BD002AF8D0013301312360EEE725
:1028D00000687047406808B520B100F098F9431EC1
:1028E0005842584108BD10B50446FFF7F3FF10B138
:1028F000606800B1043810BD406808B520B100F030
:1029000086F9B0FA80F0400908BD10B50446FFF71B
:10291000F3FF10B1606800B1043810BD40680030AA
:1029200018BF0120704700207047002070470368DF
:1029300001221B6900211847036800221B69114608
:10294000184770477047F8B50368DB6C0E460446BD
:102950008F1898473546BD4207D0236815F8011BEC
:102960005B6C204698470130F5D1236820461B6DEB
:102970009847A81BF8BDF8B50368DB6C0E46044603
:102980008F1898473546BD4208D0236820469B6C77
:102990009847431C02D005F8010BF4E72368204652
:1029A0001B6D9847A81BF8BD00207047704700209A
:1029B000704700207047000010B5054B03604C3392
:1029C000044640F8043F00F043F9204610BD00BF24
:1029D0003C480008A0F10400EEE700BF10B5044633
:1029E000FFF7EAFF2046FEF7D9F9204610BDA0F117
:1029F0000400F3E70F4B10B50022044640F8043BF7
:102A000000F008F90C4B23605C33636000236361C2
:102A10000A49204600F085F9606118B1FEF799F97E
:102A2000204610BD00F080F90168054800F0B6F8B6
:102A3000F6E700BFE4490008BC48000890480008D9
:102A40009348000810B5074B03F1080264330446AD
:102A500002604360406900F0BFF92046FFF7ACFF19
:102A6000204610BDB44800080EB477B5036807AD22
:102A7000044655F8046BDB6C98476069019500F0DB
:102A800061FA019A6069314600F0E6FD2368054667
:102A90001B6D20469847284603B0BDE8704003B040
:102AA0007047000070B504460D46164600F012F857
:102AB00033462A4621460348FDF7FAFFBDE8704039
:102AC000FDF7A2BF20490008EFF31080C04300F0DB
:102AD0000100704738B5FFF7F7FF054672B60E4C98
:102AE000236823B980F001030C4ADBB2137023681A
:102AF000013304D143220A490A48FFF7D3FF236870
:102B00002BB125B1472206490748FFF7CBFF2368C1
:102B10000133236038BD00BF9404002090040020DE
:102B2000514900088F490008B549000810B50A4C02
:102B3000236883B1FFF7C8FF20B15822074908482E
:102B4000FFF7B0FF2368013B236023681BB9054BE7
:102B50001B7803B962B610BD9404002051490008E7
:102B6000B54900089004002038B505460C46FFF72B
:102B7000B1FF29880C44A4B22C80FFF7D7FF204670
:102B800038BD70B505460E46FFF7A4FF2C88A41B80
:102B9000A4B22C80FFF7CAFF204670BD0FB413B556
:102BA000084B1A784AB9012405A904981C700191B0
:102BB000FDF754FF2046FEF7C7F802B0BDE810400D
:102BC00004B070479804002070B50446FFF7C4FDB8
:102BD0000646FFF75BFE05463046FFF757FE401BF3
:102BE000A042F9D370BD000007EE100ADFED047AB1
:102BF00067EE277AFDEEE77A17EE900AFFF7E4BF5B
:102C0000002474494FF47A735843FFF7DDBF007B0B
:102C10007047000038B504460A4B03600023436048
:102C20000D46A16002730848FEF7BAF845B1074B9C
:102C30001A6862601C600448FEF7B2F8204638BD8E
:102C40006560F8E7D4490008A00400209C04002037
:102C500010B50F4B036004460E48FEF7A1F8A368B9
:102C60002BB10D4A13689C420CD16368136009486C
:102C7000FEF796F8237B13B9201FFEF7A7F820462E
:102C800010BD13465A689442FBD162685A60EEE761
:102C9000D4490008A00400209C04002010B504467C
:102CA000FFF7D6FF2046FEF779F8204610BD00005A
:102CB00070B506460C480D46FEF772F80B4B1C68C3
:102CC0005CB1A06870B12A46314600F060FF48B997
:102CD000A06800F054FF854204D10348FEF760F875
:102CE000204670BD6468EBE7A00400209C0400202F
:102CF000036870B51B690122002104469847051E30
:102D00000DDB236802221B690021204698472368B7
:102D1000064629461B690022204698473546284624
:102D200070BDFEF719B80000014B1868704700BF6E
:102D3000F001002070B505460C4609B9002070BDB1
:102D400018B183690BB900F04FF9204B9C4201D1B7
:102D50006C6808E01E4B9C4201D1AC6803E01D4B3F
:102D60009C4208BFEC68B4F90C30002BE6D0284632
:102D7000214600F039F8236B064633B12846216A14
:102D800098470028B8BF4FF0FF36A3891B0603D52C
:102D90002846216901F018FA616B41B104F144033E
:102DA000994202D0284601F00FFA00236363A16C18
:102DB00021B1284601F008FA0023A36400F07EF94F
:102DC0000023A38100F07BF9304670BD284A00083B
:102DD000484A0008684A0008024B01461868FFF795
:102DE000A9BF00BFF00100208A892DE9F041054606
:102DF00010070C4657D44B68002B02DC0B6C002BE1
:102E000018DDE66AB6B102F48052002392B22F6850
:102E10002B600AB1626D10E0216A28460123B04799
:102E2000411C024609D12B683BB11D2B01D0162B4A
:102E300047D12F600020BDE8F081A3895B0705D54D
:102E40006368D21A636B0BB1236CD21AE66A216AEB
:102E500000232846B047461CA38905D12A681AB129
:102E60001D2A01D0162A19D100226260D9042269D4
:102E7000226004D5421C01D12B6803B96065616BE7
:102E80002F600029D6D004F14403994202D028468D
:102E900001F09AF900206063BDE8F08143F040033F
:102EA000A381BDE8F0810F69002FC3D093070E689E
:102EB00008BF4B690F6018BF0023C7EB06088B6083
:102EC00012E0A38943F04003A3814FF0FF30BDE837
:102ED000F0812846216AA66A3A464346B047002850
:102EE000EFDD0744C0EB0808B8F1000FF1DCA1E703
:102EF00038B50B6905460C46DBB118B183690BB9CF
:102F000000F072F80C4B9C4201D16C6808E00B4B4E
:102F10009C4201D1AC6803E0094B9C4208BFEC68BD
:102F2000B4F90C302BB128462146BDE83840FFF7F4
:102F30005BBF002038BD00BF284A0008484A00088F
:102F4000684A0008014620B9044B0549186800F09A
:102F50008FB9044B1868FFF7CBBF00BF884A000841
:102F6000F12E0008F0010020014900F081B900BFF6
:102F7000F12E0008002310B504460360436083600F
:102F800081814366C28103614361836119465C307C
:102F9000082200F029FA054B6362054BA362054B3A
:102FA000E362054B2462236310BD00BFE53A0008CD
:102FB000073B00083F3B0008633B000870B56823EF
:102FC0004D1E5D430E4605F1740101F0F9F804460B
:102FD00040B1002180E842000C30A06005F1680299
:102FE00000F002FA204670BD836910B5044633BB79
:102FF0008364C3640365124B124A1B688262984261
:1030000004BF0123836100F01FF86060204600F0D8
:103010001BF8A060204600F017F80421E0600022B1
:103020006068FFF7A7FFA06809210122FFF7A2FF50
:10303000E06812210222FFF79DFF0123A36110BD6A
:10304000884A0008692F0008F8B51B4B1E68B36951
:10305000074613B93046FFF7C7FF4836B4687368B0
:10306000013B04D4B4F90C5075B16834F8E7336807
:103070002BB938460421FFF7A1FF306008B136684C
:10308000ECE70C233B60F8BD4FF6FF73E3810123AF
:10309000A38165662560A560656025616561A561A0
:1030A00004F15C002946082200F09EF96563A563DF
:1030B000A564E5642046F8BD884A0008704770475B
:1030C000F7B50F46114601AA054600F095FE0646E3
:1030D00008B9002029E02846FFF7B6FF044600287B
:1030E000F7D028463946019A4FF4DB7300F058FCBC
:1030F000002806DA0025FFF7E1FFA581FFF7DFFFD3
:10310000E7E70B4B63620B4BA3620B4BE3620B4B8A
:103110002363F305E081A681246205D52846214674
:103120000022022300F016F8204603B0F0BD00BFD5
:10313000E53A0008073B00083F3B0008633B0008F6
:103140000A460349034608681946FFF7B9BF00BF9E
:10315000F001002000F000B82DE9F8430C4690463D
:103160001E46054618B183690BB9FFF73DFF3D4B7D
:103170009C4201D16C6808E03B4B9C4201D1AC6899
:1031800003E03A4B9C4208BFEC68A38903F48473C4
:10319000B3F5847F03D128462146FFF7A9FEE76AED
:1031A0000FB91D232BE0012E04D0022E2BD056B3D5
:1031B000162324E028462146FFF79AFEA28902F44E
:1031C000805292B20AB1606D05E0216A284633460A
:1031D000B847411C14D0A3895A0706D56368C01AA2
:1031E000636B4BB1236CC01A06E01B0704D5236840
:1031F00013B122699B1A18448044002603E02B6017
:103200004FF0FF392BE023691BB92846214600F017
:1032100073F828462146FFF76BFE81460028EFD160
:103220002846216A42463346B8470130E8D0616BF0
:1032300041B104F14403994202D0284600F0C4FF92
:103240000023636323692360A389002123F40263BD
:103250006160A38104F15C00082200F0C5F84846D3
:10326000BDE8F883284A0008484A0008684A000870
:103270002DE9F8438046894600F14804002694B1C0
:10328000A5686768013F0CD4AB89012B07D9B5F954
:103290000E30013303D040462946C84706436835FF
:1032A000F0E72468EBE73046BDE8F88370B50E4BD5
:1032B0000E4CE41AA41000251E46A54204D056F870
:1032C000253098470135F8E701F05AF8084C094BCA
:1032D000E41AA41000251E46A54204D056F8253055
:1032E00098470135F8E770BDF4010020F401002093
:1032F000FC010020F4010020F0B58B899D0791B0FE
:1033000006460C4626D4B1F90E10002909DAA38925
:1033100013F0800F4FF0000514BF40274FF4806773
:103320000DE001AA00F0A0FD0028F0DB029D05F4ED
:103330007045A5F500514D424D414FF48067304630
:10334000394600F03DFF60B9A3899A051DD443F0CA
:103350000203A38104F14703236023610123636116
:1033600013E00B4BB362A389206043F08003A38179
:10337000206167614DB13046B4F90E1000F086FD52
:1033800018B1A38943F00103A38111B0F0BD00BFC0
:10339000692F0008024B0146186800F011BF00BFFA
:1033A000F0010020024B0146186800F00DBF00BF7D
:1033B000F001002010B5C9B202449042034606D085
:1033C0001C788C4200F10100F7D1184610BD002096
:1033D00010BD10B5431E0A44914204D011F8014BB0
:1033E00003F8014FF8E710BD02440346934202D0B0
:1033F00003F8011BFAE770479368013B002B10B5F7
:10340000936009DA9469A34202DBCBB20A2B03D1A1
:10341000BDE8104000F00EBC1368581C1060197015
:10342000C8B210BDF8B506460F461446D518AC42D2
:1034300008D0304614F8011B3A46FFF7DDFF431C65
:10344000F5D100E00020F8BD2DE9F0439DB00D4618
:1034500090460393064618B183690BB9FFF7C4FD84
:10346000754B9D4201D1756808E0744B9D4201D1B6
:10347000B56803E0724B9D4208BFF568AB891C0735
:103480000AD52B6943B10023099320238DF82930F5
:1034900030238DF82A3041E03046294600F030FCD8
:1034A0000028F0D04FF0FF30C2E0039A111D1268DF
:1034B0000391002ABBBF524243F0020307920792D6
:1034C000B8BF0493013423782E2B7BD0DFF88081A2
:1034D000217840460322FFF76DFF38B1049AC8EB0C
:1034E000000040238340134304930134217855485E
:1034F0008DF82810062204F10108FFF75BFF002871
:1035000000F08580504B002B78D1039B073323F0CC
:10351000070308330393099B3B44099343461C4626
:1035200013F8012B1AB9B4EB08090ED002E0252AD2
:10353000F5D1F8E73046294642464B46FFF772FF81
:10354000013070D0099B4B4409932378002B6AD03B
:1035500000234FF0FF3204930793059206938DF8F2
:1035600053301A9304F101084446DFF8E8902178BB
:1035700048460522FFF71EFF08F10108049B30B101
:10358000C9EB00000122824013430493ECE7D80604
:1035900044BF20228DF85320190744BF2B228DF8F9
:1035A000532022782A2A80D0079923461C460133CB
:1035B0002278303A092A03D80A2000FB0121F5E7D6
:1035C000079180E763782A2B0AD1039B1A1D1B6899
:1035D0000392002BB8BF4FF0FF330234059375E719
:1035E000611C00220C4601312378303B092B03D8A3
:1035F0000A2000FB0232F5E7059267E703AB009370
:10360000304604A92A46114BAFF3008007E003AB14
:103610000093304604A92A460C4B00F0A1F8421C46
:1036200007467FF478AFAB895B063FF53BAF09985F
:103630001DB0BDE8F08300BF284A0008484A0008D2
:10364000684A0008964A0008000000002534000877
:10365000924A00088C4A000830B51346044A0546D1
:103660000C46106829462246BDE83040FFF7ECBE04
:10367000F00100202DE9F84391461F468A680B6946
:10368000DDF820809342B8BF1346C9F8003091F8A6
:10369000432006460C4612B10133C9F800302368B6
:1036A000990642BFD9F800300233C9F800302568C6
:1036B00015F006051CD094F843302268003318BF7B
:1036C000012392061FD5E1185A1C302081F84300CF
:1036D000224494F8451082F84310023313E0304638
:1036E000394604F119020123C047013007D00135E2
:1036F000E368D9F800209B1A9D42F0DBDBE74FF02E
:10370000FF30BDE8F8833046394604F14302C04734
:103710000130F4D02268D9F80050E36802F00602C4
:10372000042A08BF5D1B2269A3680CBF25EAE57562
:1037300000259342C4BF9B1AED184FF00009A9451C
:103740000ADA3046394604F11A020123C047013033
:10375000D5D009F10109F2E70020BDE8F8830000A7
:103760002DE9FF410C461746227E6E2A98460646F2
:103770000A9B01F1430100F0AF8012D8632A23D0E5
:103780000AD8002A00F0BC80582A40F0CB8084F888
:103790004520DFF804E257E0642A1ED0692A1CD0D5
:1037A000C0E0732A00F0B08009D86F2A2ED0702AAA
:1037B00040F0B880226842F0200222603FE0752A83
:1037C00024D0782A3BD0ADE01A68111D1960136827
:1037D00084F8423004F14205A8E020681A6810F02D
:1037E000800F02D0101D186008E010F0400F02F1A9
:1037F0000400186002D0B2F9003000E01368002B1A
:103800003EDA2D225B4284F8432039E020681A68B2
:1038100010F0800F02D0101D186007E010F0400F6C
:1038200002F10400186001D0138800E01368227EC2
:10383000DFF864E16F2A0CBF08220A221CE078221C
:10384000DFF858E184F845202268186812F0800FEC
:1038500000F104051D6003D1550601D5038800E081
:103860000368D00744BF42F0200222601BB92268DF
:1038700022F0200222601022002084F8430002E09F
:10388000DFF814E10A226568A560002DA2BF206858
:1038900020F00400206003B965B10D46B3FBF2F0DF
:1038A00002FB10331EF8033005F8013D03460028E3
:1038B000F4D100E00D46082A0BD12368DA0708D5B9
:1038C000236962689A42DEBF302305F8013C05F1A6
:1038D000FF35491B21612EE025681A68606915F0E3
:1038E000800F03D0151D1D60136808E015F0400F10
:1038F00002F104051D60136801D0188000E0186013
:10390000002323610D4616E01A68111D1960156821
:10391000626828460021FFF74DFD08B1401B60603A
:10392000636804E004F1420584F842200123236126
:10393000002384F84330CDF800803046214603AAA6
:103940003B46FFF797FE013002D14FF0FF301FE0FA
:10395000304639462A462369C0470130F5D02368EE
:103960009B0705D4E068039B9842B8BF18460FE058
:103970000025E368039A9B1A9D42F3DA30463946E4
:1039800004F119020123C0470130DED00135F0E710
:1039900004B0BDE8F08100BF9D4A0008AE4A0008AF
:1039A00038B5074C054600202060084611461A46E7
:1039B000FDF726FA431C02D1236803B12B6038BD02
:1039C0004C07002000290CBF022200224FF4806324
:1039D00000F000B82DE9F0411D463D4B1E6804463D
:1039E0000F46904626B1B36913B93046FFF7FCFA8B
:1039F000384B9C4201D1746808E0374B9C4201D19E
:103A0000B46803E0354B9C4208BFF468B8F1020F7C
:103A10005AD8002D58DB30462146FFF769FA0023BB
:103A20006360A361A3891B0603D53046216900F0BA
:103A3000CBFBA389B8F1020F23F08303A38112D03B
:103A400037BB002D08BF4FF480652846FFF7A2FC66
:103A50000746C8B94FF48060FFF79CFC074688B959
:103A60004FF0FF3000E00020A38943F00203A38160
:103A70000023A36004F147032360236101236361F2
:103A8000BDE8F0814FF48065A38943F08003A381F2
:103A9000B8F1010F01BFA38943F00103A3816B4279
:103AA00008BFA3610E4BB362A389276003F008002F
:103AB00080B22761656148B113F0030F18BF00257C
:103AC000A5600020BDE8F0814FF0FF30BDE8F08137
:103AD000F0010020284A0008484A0008684A000807
:103AE000692F000810B50C46B1F90E1000F056FB16
:103AF0000028ABBF636DA3891B1823F48053ACBFB0
:103B00006365A38110BD2DE9F0411D468B89DB055E
:103B100007460C46164605D5B1F90E1000220223C1
:103B200000F0C4F9A389B4F90E1023F48053A381E3
:103B3000384632462B46BDE8F04100F0CFB810B50C
:103B40000C46B1F90E1000F0B1F9431CA38915BF62
:103B5000606523F4805343F48053A38118BFA3818D
:103B600010BDB1F90E1000F037B910F8012B11F8A3
:103B7000013B012A28BF9A42F7D0D01A704703466A
:103B800013F8012B002AFBD1181A0138704770B5C1
:103B9000AAB1451E01396B7811F8014FA34205F116
:103BA000010606D16FF00104641B1444E04202D107
:103BB0001C46181B70BD3546002BECD1F8E71046AB
:103BC00070BD30B5141E9BB0054604DA8B2303602C
:103BD0004FF0FF301CE04FF40272ADF80C2014BF20
:103BE00004F1FF322246029205924FF6FF720091D5
:103BF0000491ADF80E2069461A461E9B00F0DCF9D0
:103C0000431CBCBF8B232B6014B1009B00221A7095
:103C10001BB030BD73B50093054B06460D461446E8
:103C2000186831462A462346FFF7CBFF02B070BD25
:103C3000F001002070B50D461446064618B18369A0
:103C40000BB9FFF7D1F9224B9C4201D1746808E00F
:103C5000204B9C4201D1B46803E01F4B9C4208BF3B
:103C6000F468A369A360A3891A0709D523693BB146
:103C700023682069181A63699842EDB20FDB08E0E7
:103C80003046214600F03CF80028F1D04FF0FF30DC
:103C900070BD30462146FFF72BF90028F6D1A36806
:103CA000013BA36023685A1C22601D7063690130C8
:103CB000984204D0A389DB0707D50A2D05D13046E9
:103CC0002146FFF715F90028E0D1284670BD00BF56
:103CD000284A0008484A0008684A000838B5074CD6
:103CE000054600202060084611461A46FCF72EFFC4
:103CF000431C02D1236803B12B6038BD4C07002060
:103D0000314B70B51D6806460C4625B1AB6913B939
:103D10002846FFF769F92D4B9C4201D16C6808E0F9
:103D20002B4B9C4201D1AC6803E02A4B9C4208BF5C
:103D3000EC68A3899AB211071DD4D50602D40922D2
:103D4000326038E0500712D5616B41B104F1440391
:103D5000994202D0304600F037FA00236363A3890A
:103D600023F02403A3810023636023692360A389D4
:103D700043F00803A38123694BB9A38903F420739B
:103D8000B3F5007F03D030462146FFF7B5FAA3898B
:103D900013F0010205D00022A26062695242A261C2
:103DA00003E0990758BF6269A26022694AB903F02B
:103DB000800080B230B143F04003A3814FF0FF3068
:103DC00070BD002070BD00BFF0010020284A00082F
:103DD000484A0008684A000838B5064C00230546E2
:103DE00008462360FCF792FE431C02D1236803B10E
:103DF0002B6038BD4C0700200B78722B30B50ED0ED
:103E0000772B07D0612B0ED14FF4027401234FF4AE
:103E100084701AE04FF4C0640123082015E00024E8
:103E20002346042011E016230360002030BD622DDC
:103E300010D0782D11D02B2D07D120F01C0023F0AD
:103E4000030340F0100043F0020311F8015F002D5E
:103E5000EDD105E043F48033F7E743F40063F4E782
:103E60002343136030BD000038B5074C00230546DE
:103E7000084611462360FCF707FF431C02D1236864
:103E800003B12B6038BD00BF4C07002038B5064C8D
:103E90000023054608462360FCF7B6FE431C02D10A
:103EA000236803B12B6038BD4C07002038B5074CA0
:103EB000054600202060084611461A46FCF7C2FE5F
:103EC000431C02D1236803B12B6038BD4C0700208E
:103ED000814210B501EB020301D3421E0BE0984270
:103EE000FBD28118D21AD34204D013F8014D01F845
:103EF000014DF8E710BD994204D011F8014B02F8CA
:103F0000014FF8E710BD2DE9F0478E68B3428246B5
:103F10000C469046994640D38A8912F4906F3AD065
:103F2000256809696F1A6569022305EB450595FB4C
:103F3000F3F57B1C4B449D4238BF1D4653050FD5FE
:103F4000294600F03DF9064698B121693A46FFF747
:103F500040FAA38923F4906343F08003A38113E024
:103F60002A4600F02FF9064670B95046216900F044
:103F70002BF90C23CAF80030A38943F04003A38136
:103F80004FF0FF30BDE8F087266165613E44ED1BD0
:103F90002660A5604E46B14500D24E4632462068A6
:103FA0004146FFF795FFA3689B1BA36023681E444F
:103FB00026600020BDE8F0872DE9F0439DB006465D
:103FC00003938B891C060D4690460CD50B6953B99B
:103FD000402100F0F5F82860286110B90C23336007
:103FE000CCE040236B610023099320238DF8293016
:103FF00030238DF82A3043461C4613F8012B1AB99A
:10400000B4EB08090FD002E0252AF5D1F8E73046D5
:10401000294642464B46FFF776FF013000F0A98063
:10402000099B4B4409932378002B00F0A2800023C6
:104030004FF0FF3204930793059206938DF85330A7
:104040001A9304F101084446DFF848912178484664
:104050000522FFF7AFF908F10108049B30B1C9EB65
:1040600000000122824013430493ECE7D80644BFCA
:1040700020228DF85320190744BF2B228DF853209E
:1040800022782A2A02D0079923460EE0039A111DAE
:1040900012680391002ABBBF524243F00203079209
:1040A0000792B8BF049301340AE01C46013322781A
:1040B000303A092A03D80A2000FB0121F5E70791CD
:1040C00023782E2B1AD163782A2B0AD1039B1A1D31
:1040D0001B680392002BB8BF4FF0FF3302340593E7
:1040E0000CE0611C00220C4601312378303B092B87
:1040F00003D80A2000FB0232F5E70592DFF898802A
:10410000217840460322FFF755F938B1049AC8EBED
:1041100000004023834013430493013421781A485C
:104120008DF82810062204F10108FFF743F988B141
:10413000164B33B9039B073323F00703083303936C
:1041400013E003AB0093304604A92A46104BAFF3AB
:10415000008007E003AB0093304604A92A460C4BCD
:10416000FFF7FEFA421C074603D0099B3B44099324
:1041700041E7AB895B0601D4099801E04FF0FF30BD
:104180001DB0BDE8F08300BF964A000800000000A3
:10419000073F00088C4A0008924A000838B5074CCF
:1041A000054600202060084611461A46FCF700FD2F
:1041B000431C02D1236803B12B6038BD4C0700209B
:1041C00000F048B800F09CB800F000B830B5002905
:1041D0003DD051F8042C0B1F1D49002AB8BF9B1875
:1041E0000A680C4612B95A600B6030BD93420DD27A
:1041F00019685818904201BF5A5852181A604268FC
:104200005A60236030BD994203D80A46516800299C
:10421000F9D1146815199D420AD11B682344D0189E
:104220008842136013D10868034413604B680DE0A3
:1042300002D90C23036030BD1C681819884204BFE2
:1042400008684968596004BF00191860536030BDA0
:10425000AC04002070B5CC1C24F0030408340C2CF2
:1042600038BF0C24002C064603DA0C2333600020F0
:1042700070BD8C42F9D3204A136810461946A1B18B
:104280000A68121B0ED40B2A03D90A608B188C50B3
:104290001FE08B420DBF5A684A685A60026018BF1F
:1042A0000B4616E00B464968E9E7144D2B681BB92D
:1042B000304600F04BF828603046214600F046F8C2
:1042C000421C0346D1D0C51C25F0030585420AD106
:1042D0001C6003F10B001A1D20F00700821A0AD09F
:1042E0005142995070BD3046E91A00F02FF8013064
:1042F000BBD02B46ECE770BDAC040020A804002026
:10430000F8B5074615460E4621B91146BDE8F840F6
:10431000FFF756BF1AB9FFF757FF2846F8BD00F060
:1043200025F8A8420ED238462946FFF749FF044631
:1043300050B131462A46FFF74CF838463146FFF770
:1043400043FF01E03046F8BD2046F8BD38B5064CC5
:104350000023054608462360FCF7C2FC431C02D13B
:10436000236803B12B6038BD4C07002051F8040CC2
:104370000028BEBF091851F8043CC0180438704723
:10438000F8B500BFF8BC08BC9E467047F8B500BF42
:10439000F8BC08BC9E46704748656C6C6F0A0D00FF
:1043A000526F746F72206F726967696E3A20257858
:1043B0000A0D000012180921240600000705030455
:1043C0000100020703000000004400401207000043
:1043D0000A00000000380140120700000F00000032
:1043E0000044004012070000140000000044004098
:1043F00012070000170000000038014012070000FB
:10440000FFFF0000FFFFFFFF0000000002000000B0
:10441000004400401207000009000000003801407D
:10442000120700000E0000000044004012070000C8
:1044300013000000004400401207000016000000B6
:104440000038014012070000FFFF0000FFFFFFFFE0
:104450000000000050696E6D6170206572726F72AD
:104460003A2077726F6E6720706F7274206E756D70
:104470006265722E00433A5C6D6A5C776F726B7393
:10448000706163655C626D5F777261705C31363656
:10449000355C6D6265642D6F735C74617267657401
:1044A000735C5441524745545F53544D5C67706987
:1044B0006F5F6170692E630070696E20213D202856
:1044C00050696E4E616D65294E4300433A2F6D6A07
:1044D0002F776F726B73706163652F626D5F777298
:1044E00061702F313636352F6D6265642D6F732FF5
:1044F0004255494C442F6D6265642F706C6174663F
:104500006F726D2F53696E676C65746F6E50747245
:104510002E68005F707472203D3D202854202A29A7
:10452000265F64617461002F737464657272002F7A
:10453000737464696E002F7374646F757400000087
:10454000010000000200000004000000080000005C
:10455000100000002000000040000000800000006B
:10456000000100000002000000040000000800003C
:10457000001000000020000000400000008000004B
:10458000433A5C6D6A5C776F726B73706163655CF4
:10459000626D5F777261705C313636355C6D626575
:1045A000642D6F735C746172676574735C544152FF
:1045B0004745545F53544D5C70696E6D61702E6356
:1045C00000300043616E6E6F7420696E69746961BA
:1045D0006C697A6520554152540A00433A5C6D6A11
:1045E0005C776F726B73706163655C626D5F77722D
:1045F00061705C313636355C6D6265642D6F735C5D
:10460000746172676574735C5441524745545F53DB
:10461000544D5C5441524745545F53544D333246D8
:10462000335C73657269616C5F6465766963652E7E
:1046300063006F626A5F732D3E7561727420213D65
:104640002028554152544E616D65294E43000203A6
:104650000405060708090A0B0C0D0E0F10100102C5
:10466000030405060708090A0B0C0D0E0F100004C1
:104670000802000000000000000001020304060719
:10468000080900000000010203040000000000000F
:10469000000000002B2300082B23000855230008EE
:1046A0008D2300083D23000849230008B4FFFFFFC5
:1046B00000000000812300089F23000877290008DC
:1046C00047290008A9290008AF290008AF290008D8
:1046D000AF290008B3290008AD290008B329000854
:1046E0000D23000813230008192300081F230008C6
:1046F00025230008292300084D2300084123000832
:104700002D23000835230008B0FFFFFF0000000044
:1047100087230008A5230008433A2F6D6A2F776F7F
:10472000726B73706163652F626D5F777261702F5A
:10473000313636352F6D6265642D6F732F425549C2
:104740004C442F6D6265642F706C6174666F726D7E
:104750002F43616C6C6261636B2E68005F6F7073D6
:10476000000000000000000000000000DD23000841
:10477000DF23000871250008D125000870696E6DDF
:104780006170206D69732D6D617463680070696E6E
:104790006D6170206E6F7420666F756E6420666F39
:1047A00072207065726970686572616C00636F7504
:1047B0006C64206E6F742070696E6F757400446550
:1047C000657020736C656570206C6F636B20776F0C
:1047D000756C64206F766572666C6F7720283E205A
:1047E00055534852545F4D41582900446565702027
:1047F000736C656570206C6F636B20776F756C648C
:1048000020756E646572666C6F7720283C203029B5
:10481000000000001C48000878040020AD220008B9
:10482000AF220008E9220008FD220008B922000892
:10483000D522000800000000000000000000000079
:1048400000000000D90C0008D90C0008D90C0008A1
:10485000D90C0008272900082B2900082F29000857
:1048600039290008F12C00080D2300081323000843
:10487000192300081F230008252300082923000806
:10488000FCFFFFFF0000000000000000000000002F
:10489000772B0053747265616D206F626A206661C8
:1048A000696C7572652C206572726E6F3D25640DA2
:1048B0000A000000000000000000000000000000EE
:1048C000000000007729000847290008A9290008EE
:1048D000AF290008AF290008AF290008B329000854
:1048E000AD290008B32900080D2300081323000890
:1048F000192300081F230008252300082923000886
:10490000D90C0008D90C00084329000845290008E3
:10491000FCFFFFFF0000000000000000000000009E
:104920006D626564206173736572746174696F6E22
:10493000206661696C65643A2025732C2066696C79
:10494000653A2025732C206C696E65202564200A49
:1049500000433A5C6D6A5C776F726B73706163657C
:104960005C626D5F777261705C313636355C6D62AA
:1049700065642D6F735C706C6174666F726D5C6DD5
:104980006265645F637269746963616C2E63006958
:104990006E746572727570745F656E61626C655F6E
:1049A000636F756E746572203C2055494E543332E6
:1049B0005F4D415800696E74657272757074735FF3
:1049C00064697361626C65640000000000000000AF
:1049D00000000000512C00089D2C00080000000081
:1049E000000000000000000000000000D90C0008DA
:1049F000D90C0008D90C0008D90C00082729000898
:104A00002B2900082F29000839290008F12C00085B
:104A10000D23000813230008192300081F23000892
:104A200025230008292300080000000000000000E2
:104A30000000000000000000000000000000000076
:104A40000000000000000000000000000000000066
:104A50000000000000000000000000000000000056
:104A60000000000000000000000000000000000046
:104A70000000000000000000000000000000000036
:104A8000000000000000000090010020232D302BCA
:104A90002000686C4C00656667454647003031323F
:104AA0003334353637383941424344454600303196
:104AB00032333435363738396162636465660000F5
:104AC0001000000000000000017A5200027C0E017C
:104AD0001B0C0D0010000000180000008EF0FFFFFE
:0C4AE000140000000000000000000000B6
:084AEC00F8B6FF7F0100000095
:104AF4005007002000127A0000000000284A000835
:104B0400484A0008684A000800000000000000004D
:104B140000000000000000004C46000800000000F7
:104B24000000000000000000000000000000000081
:104B34000000000000000000000000000000000071
:104B44000000000000000000000000000000000061
:104B5400000000000000000090010020AD010008EA
:0C4B64006906000889010008000000003C
:040000050800152DAD
:00000001FF
